:020000040800F2
:1000000000000524A12C0008F9230008FB230008A8
:10001000FD230008FF230008012400080000000061
:1000200000000000000000000000000081C4000883
:10003000032400080000000021C5000885C5000851
:10004000F12C0008F12C0008F12C0008F12C00081C
:10005000F12C0008F12C0008F12C0008F12C00080C
:10006000F12C0008F12C0008F12C000805240008F0
:100070001524000825240008F12C0008F12C0008A4
:10008000F12C0008F12C0008F12C000835240008A0
:10009000452400085524000865240008F12C0008B8
:1000A000F12C0008F12C0008F12C0008F12C0008BC
:1000B000F12C0008F12C0008F12C0008F12C0008AC
:1000C000F12C0008F12C0008F12C0008F12C00089C
:1000D0007524000885240008F12C0008F12C000884
:1000E000F12C0008F12C000800000000F12C0008A1
:1000F000F12C0008F12C0008F12C0008F12C00086C
:10010000F12C0008F12C0008F12C0008F12C00085B
:10011000F12C000895240008F12C0008F12C0008AF
:10012000A5240008B5240008F12C0008F12C0008D3
:10013000F12C0008F12C0008F12C0008F12C00082B
:1001400000000000000000000000000000000000AF
:10015000F12C0008F12C0008F12C0008F12C00080B
:10016000F12C0008F12C0008F12C0008F12C0008FB
:10017000F12C0008C5240008F12C00080000000044
:10018000F12C0008F12C0008F12C0008F12C0008DB
:10019000F12C0008F12C0008F12C0008F12C0008CB
:1001A000F12C0008F12C0008F12C000800000000E0
:1001B000F12C0008F12C0008F12C0008F12C0008AB
:1001C000F12C0008F12C00080000000000000000E5
:1001D0000000000000000000F12C000800000000FA
:1001E000000000000000000000000000000000000F
:1001F0000000000000000000F12C0008F12C0008B5
:10020000F12C0008F12C000800000000F12C00087F
:10021000F12C0008F12C0008F12C0008F12C00084A
:10022000F12C000800000000F12C00080000000084
:10023000F12C0008F12C000800000000F12C00084F
:10024000F12C0008F12C0008F12C0008F12C00081A
:10025000F12C0008F12C0008F12C0008F12C00080A
:10026000F12C0008F12C0008F12C0008F12C0008FA
:10027000F12C0008F12C0008F12C0008000000000F
:10028000F12C0008F12C0008F12C0008F12C0008DA
:1002900000000000F12C0008F12C00080000000014
:1002A00000000000F12C0008F12C0008F12C0008DF
:1002B000D5240008F12C0008F12C0008E5240008E2
:0C02C000F524000805250008F12C0008BA
:1003000010B5054C237833B9044B13B10448AFF34F
:1003100000800123237010BD180D00240000000090
:1003200004E6010808B5034B1BB103490348AFF3CA
:10033000008008BD000000001C0D002404E6010838
:1003400081F0004102E000BF83F0004330B54FEA86
:1003500041044FEA430594EA050F08BF90EA020FF3
:100360001FBF54EA000C55EA020C7FEA645C7FEA86
:10037000655C00F0E2804FEA5454D4EB5555B8BFA9
:100380006D420CDD2C4480EA020281EA030382EA1A
:10039000000083EA010180EA020281EA0303362DAC
:1003A00088BF30BD11F0004F4FEA01314FF4801C7F
:1003B0004CEA113102D0404261EB410113F0004F91
:1003C0004FEA03334CEA133302D0524263EB430348
:1003D00094EA050F00F0A780A4F10104D5F1200EE6
:1003E0000DDB02FA0EFC22FA05F2801841F1000141
:1003F00003FA0EF2801843FA05F359410EE0A5F115
:1004000020050EF1200E012A03FA0EFC28BF4CF045
:10041000020C43FA05F3C01851EBE37101F00045FB
:1004200007D54FF0000EDCF1000C7EEB00006EEB08
:100430000101B1F5801F1BD3B1F5001F0CD3490892
:100440005FEA30004FEA3C0C04F101044FEA4452E9
:1004500012F5800F80F09A80BCF1004F08BF5FEA70
:10046000500C50F1000041EB045141EA050130BD50
:100470005FEA4C0C404141EB0101013C28BFB1F562
:10048000801FE9D291F0000F04BF01460020B1FAAD
:1004900081F308BF2033A3F10B03B3F120020CDA80
:1004A0000C3208DD02F1140CC2F10C0201FA0CF05E
:1004B00021FA02F10CE002F11402D8BFC2F1200CC3
:1004C00001FA02F120FA0CFCDCBF41EA0C01904079
:1004D000E41AA2BF01EB0451294330BD6FEA0404C2
:1004E0001F3C1CDA0C340EDC04F11404C4F12002AD
:1004F00020FA04F001FA02F340EA030021FA04F3BF
:1005000045EA030130BDC4F10C04C4F1200220FA15
:1005100002F001FA04F340EA0300294630BD21FA53
:1005200004F0294630BD94F0000F83F4801306BF19
:1005300081F480110134013D4EE77FEA645C18BF0D
:100540007FEA655C29D094EA050F08BF90EA020FA4
:1005500005D054EA000C04BF1946104630BD91EA9C
:10056000030F1EBF0021002030BD5FEA545C05D19F
:100570004000494128BF41F0004130BD14F58004DE
:100580003CBF01F5801130BD01F0004545F0FE4152
:1005900041F470014FF0000030BD7FEA645C1ABF87
:1005A000194610467FEA655C1CBF0B46024650EABE
:1005B000013406BF52EA033591EA030F41F40021EA
:1005C00030BD00BF90F0000F04BF0021704730B570
:1005D0004FF4806404F132044FF000054FF0000145
:1005E00050E700BF90F0000F04BF0021704730B506
:1005F0004FF4806404F1320410F0004548BF4042DB
:100600004FF000013EE700BF42004FEAE2014FEA2F
:1006100031014FEA02701FBF12F07F4393F07F4F0A
:1006200081F06051704732F07F4208BF704793F00D
:100630007F4F04BF41F40021704730B54FF4607420
:1006400001F0004521F000411CE700BF50EA010223
:1006500008BF704730B54FF000050AE050EA0102CC
:1006600008BF704730B511F0004502D5404261EB3C
:1006700041014FF4806404F132045FEA915C3FF47D
:10068000D8AE4FF003025FEADC0C18BF03325FEA1A
:10069000DC0C18BF033202EBDC02C2F1200300FACB
:1006A00003FC20FA02F001FA03FE40EA0E0021FAF0
:1006B00002F11444BDE600BF70B54FF0FF0C4CF4DE
:1006C000E06C1CEA11541DBF1CEA135594EA0C0F90
:1006D00095EA0C0F00F0DEF82C4481EA030621EACB
:1006E0004C5123EA4C5350EA013518BF52EA033506
:1006F00041F4801143F4801338D0A0FB02CE4FF0B8
:100700000005E1FB02E506F00042E0FB03E54FF0E7
:100710000006E1FB03569CF0000F18BF4EF0010EDF
:10072000A4F1FF04B6F5007F64F5407404D25FEADB
:100730004E0E6D4146EB060642EAC62141EA55518E
:100740004FEAC52040EA5E504FEACE2EB4F1FD0CD0
:1007500088BFBCF5E06F1ED8BEF1004F08BF5FEA4E
:10076000500E50F1000041EB045170BD06F0004600
:1007700046EA010140EA020081EA0301B4EB5C04AD
:10078000C2BFD4EB0C0541EA045170BD41F48011A5
:100790004FF0000E013C00F3AB8014F1360FDEBFCA
:1007A000002001F0004170BDC4F10004203C35DAA6
:1007B0000C341BDC04F11404C4F1200500FA05F329
:1007C00020FA04F001FA05F240EA020001F00042CA
:1007D00021F0004110EBD37021FA04F642EB060140
:1007E0005EEA430E08BF20EAD37070BDC4F10C046A
:1007F000C4F1200500FA04F320FA05F001FA04F22E
:1008000040EA020001F0004110EBD37041F1000119
:100810005EEA430E08BF20EAD37070BDC4F1200524
:1008200000FA05F24EEA020E20FA04F301FA05F28C
:1008300043EA020321FA04F001F0004121FA04F234
:1008400020EA020000EBD3705EEA430E08BF20EA04
:10085000D37070BD94F0000F0FD101F0004640003E
:1008600041EB010111F4801F08BF013CF7D041EAC0
:10087000060195F0000F18BF704703F000465200C4
:1008800043EB030313F4801F08BF013DF7D043EA95
:100890000603704794EA0C0F0CEA135518BF95EA4B
:1008A0000C0F0CD050EA410618BF52EA4306D1D1D2
:1008B00081EA030101F000414FF0000070BD50EAF1
:1008C000410606BF1046194652EA430619D094EA7B
:1008D0000C0F02D150EA013613D195EA0C0F05D165
:1008E00052EA03361CBF104619460AD181EA0301B9
:1008F00001F0004141F0FE4141F470014FF0000071
:1009000070BD41F0FE4141F4780170BD70B54FF00B
:10091000FF0C4CF4E06C1CEA11541DBF1CEA13558B
:1009200094EA0C0F95EA0C0F00F0A7F8A4EB05046D
:1009300081EA030E52EA03354FEA013100F0888064
:100940004FEA03334FF0805545EA131343EA12632D
:100950004FEA022245EA111545EA10654FEA0026E2
:100960000EF000419D4208BF964244F1FD0404F59B
:10097000407402D25B084FEA3202B61A65EB0305F7
:100980005B084FEA32024FF480104FF4002CB6EBB4
:10099000020E75EB030E22BFB61A754640EA0C0034
:1009A0005B084FEA3202B6EB020E75EB030E22BF74
:1009B000B61A754640EA5C005B084FEA3202B6EBB5
:1009C000020E75EB030E22BFB61A754640EA9C0074
:1009D0005B084FEA3202B6EB020E75EB030E22BF44
:1009E000B61A754640EADC0055EA060E18D04FEA02
:1009F000051545EA16754FEA06164FEAC30343EAA2
:100A000052734FEAC2025FEA1C1CC0D111F4801F6E
:100A10000BD141EA00014FF000004FF0004CB6E767
:100A200011F4801F04BF01430020B4F1FD0C88BF06
:100A3000BCF5E06F3FF6AFAEB5EB030C04BFB6EB11
:100A4000020C5FEA500C50F1000041EB045170BD04
:100A50000EF0004E4EEA113114EB5C04C2BFD4EB31
:100A60000C0541EA045170BD41F480114FF0000EB5
:100A7000013C90E645EA060E8DE60CEA135594EA31
:100A80000C0F08BF95EA0C0F3FF43BAF94EA0C0F34
:100A90000AD150EA01347FF434AF95EA0C0F7FF4A9
:100AA00025AF104619462CE795EA0C0F06D152EAFD
:100AB00003353FF4FDAE1046194622E750EA4106E1
:100AC00018BF52EA43067FF4C5AE50EA41047FF4F2
:100AD0000DAF52EA43057FF4EBAE12E74FEA410255
:100AE000B2F1E04324BFB3F5001CDCF1FE5C0DD98C
:100AF00001F0004C4FEAC0024CEA5070B2F1004FD6
:100B000040EB830008BF20F00100704711F0804FD8
:100B100021D113F13872BCBF01F00040704741F49D
:100B200080114FEA5252C2F11802C2F1200C10FAA1
:100B30000CF320FA02F018BF40F001004FEAC12385
:100B40004FEAD32303FA0CFC40EA0C0023FA02F329
:100B50004FEA4303CCE77FEA625307D150EA0133FF
:100B60001EBF4FF0FE4040F44000704701F00040CF
:100B700040F0FE4040F40000704700BF53B94AB94E
:100B8000002908BF00281CBF4FF0FF314FF0FF3095
:100B900000F074B9ADF1080C6DE904CE00F006F870
:100BA000DDF804E0DDE9022304B070472DE9F047E9
:100BB000089D04468E46002B4DD18A42944669D941
:100BC000B2FA82F252B101FA02F3C2F1200120FA24
:100BD00001F10CFA02FC41EA030E94404FEA1C4872
:100BE000210CBEFBF8F61FFA8CF708FB16E341EA6E
:100BF000034306FB07F199420AD91CEB030306F1F4
:100C0000FF3080F01F81994240F21C81023E634414
:100C10005B1AA4B2B3FBF8F008FB103344EA0344B8
:100C200000FB07F7A7420AD91CEB040400F1FF33CD
:100C300080F00A81A74240F207816444023840EA0A
:100C40000640E41B00261DB1D4400023C5E9004343
:100C50003146BDE8F0878B4209D9002D00F0EF80C6
:100C60000026C5E9000130463146BDE8F087B3FAF9
:100C700083F6002E4AD18B4202D3824200F2F980E1
:100C8000841A61EB030301209E46002DE0D0C5E9E4
:100C9000004EDDE702B9FFDEB2FA82F2002A40F030
:100CA0009280A1EB0C014FEA1C471FFA8CFE012633
:100CB000200CB1FBF7F307FB131140EA01410EFBD7
:100CC00003F0884208D91CEB010103F1FF3802D27E
:100CD000884200F2CB804346091AA4B2B1FBF7F078
:100CE00007FB101144EA01440EFB00FEA64508D99B
:100CF0001CEB040400F1FF3102D2A64500F2BB80D8
:100D00000846A4EB0E0440EA03409CE7C6F1200726
:100D1000B34022FA07FC4CEA030C20FA07F401FA6C
:100D200006F31C43F9404FEA1C4900FA06F3B1FBF5
:100D3000F9F8200C1FFA8CFE09FB181140EA01415A
:100D400008FB0EF0884202FA06F20BD91CEB0101F7
:100D500008F1FF3A80F08880884240F28580A8F14F
:100D600002086144091AA4B2B1FBF9F009FB1011A1
:100D700044EA014100FB0EFE8E4508D91CEB01013F
:100D800000F1FF346CD28E456AD90238614440EAE2
:100D90000840A0FB0294A1EB0E01A142C846A64662
:100DA00056D353D05DB1B3EB080261EB0E0101FAEB
:100DB00007F722FA06F3F1401F43C5E90071002648
:100DC0003146BDE8F087C2F12003D8400CFA02FC9E
:100DD00021FA03F3914001434FEA1C471FFA8CFEAE
:100DE000B3FBF7F007FB10360B0C43EA064300FB9E
:100DF0000EF69E4204FA02F408D91CEB030300F13C
:100E0000FF382FD29E422DD9023863449B1B89B2F2
:100E1000B3FBF7F607FB163341EA034106FB0EF37B
:100E20008B4208D91CEB010106F1FF3816D28B4228
:100E300014D9023E6144C91A46EA004638E72E46F4
:100E4000284605E70646E3E61846F8E64B45A9D2EC
:100E5000B9EB020864EB0C0E0138A3E74646EAE75B
:100E6000204694E74046D1E7D0467BE7023B614409
:100E700032E7304609E76444023842E7704700BF72
:100E8000844641EA000313F003036DD1403A41D395
:100E900051F8043B40F8043B51F8043B40F8043B54
:100EA00051F8043B40F8043B51F8043B40F8043B44
:100EB00051F8043B40F8043B51F8043B40F8043B34
:100EC00051F8043B40F8043B51F8043B40F8043B24
:100ED00051F8043B40F8043B51F8043B40F8043B14
:100EE00051F8043B40F8043B51F8043B40F8043B04
:100EF00051F8043B40F8043B51F8043B40F8043BF4
:100F000051F8043B40F8043B51F8043B40F8043BE3
:100F1000403ABDD2303211D351F8043B40F8043B83
:100F200051F8043B40F8043B51F8043B40F8043BC3
:100F300051F8043B40F8043B103AEDD20C3205D393
:100F400051F8043B40F8043B043AF9D2043208D08B
:100F5000D2071CBF11F8013B00F8013B01D30B88FD
:100F600003806046704700BF082A13D38B078DD0DB
:100F700010F003038AD0C3F10403D21ADB071CBFAD
:100F800011F8013B00F8013B80D331F8023B20F817
:100F9000023B7BE7043AD9D3013A11F8013B00F850
:100FA000013BF9D20B7803704B7843708B788370D8
:100FB00060467047000000000000000000000000D4
:100FC000A2EB0300704700BF02780B78012A28BF0C
:100FD0009A42F5D16DE9044540EA0104CDE9026782
:100FE0006FF0000C4FEA447212B380EA010414F06F
:100FF000070F6AD100F0070420F0070004F0030592
:1010000021F007014FEAC505F0E8042314F0040FAE
:10101000F1E804670CFA05F462EA040266EA0406E1
:101020000AD063EA0403624667EA0407664603E0FF
:10103000F0E80423F1E8046782FA4CF582EA06043A
:10104000A4FA8CF46CBB83FA4CF583EA0705A5FA85
:101050008CF595B950E9022351E9026782FA4CF503
:1010600082EA0604A4FA8CF483FA4CF583EA0705B5
:10107000A5FA8CF52543DBD09CB92DBAB5FA85F4D9
:1010800024F0070427FA04F1DDE9026723FA04F3E8
:1010900003F0FF0001F0FF01FDE80445A0EB0100B3
:1010A000704724BAB4FA84F424F0070426FA04F151
:1010B000DDE9026722FA04F202F0FF0001F0FF010D
:1010C000FDE80445A0EB0100704714F0030F3CD18C
:1010D00010F0030428D150F8082B51F8083B82FA8D
:1010E0004CF582EA0305A5FA8CF55DB950F8042C9D
:1010F00051F8043C82FA4CF582EA0305A5FA8CF516
:10110000002DE8D02DBAB5FA85F424F0070423FAAF
:1011100004F122FA04F202F0FF0001F0FF01FDE801
:101120000445A0EB010070474FEAC40420F003001F
:1011300050F8082B21F0030151F8083B0CFA04F495
:1011400062EA040263EA0403C9E710F003041AD058
:10115000A1EB040120F00300E40750F8042B06D0B3
:101160000FD28B785FFAA2F4E41A06D12BB1CB78B8
:101170005FFAB2F4E41A00D11BB920465DF8104BB7
:10118000704701F1040150F8042BCC0721F0030152
:1011900051F8043B48D824D222F07F4482FA4CF51F
:1011A00094EA1325A5FA8CF50AD165B951F8043BE8
:1011B00084EA0204B4EB036F0ED150F8042BEBE782
:1011C0004FEA132355E035F07F454DD10878FDE80F
:1011D0000445C0F1000070474FEA126203F0FF03BC
:1011E00047E002EA1C4482FA4CF594EA1345A5FA5A
:1011F0008CF50AD165B951F8043B84EA0204B4EBDA
:10120000034F0CD150F8042BEBE74FEA134330E0C7
:1012100015EA1C4528D10B884FEA124229E04FEA13
:10122000124203EA1C4324E002F0FF0482FA4CF568
:1012300094EA1365A5FA8CF50AD165B951F8043B17
:1012400084EA0204B4EB032F09D150F8042BEBE736
:101250004FEA13630DE015F0FF0F05D10B684FEA5D
:10126000122223F07F4304E04FF00000FDE8044524
:10127000704712BA1BBA82FA4CF482EA0304A4FA49
:101280008CF5B5FA85F402FA04F203FA04F34FEA96
:101290001260FDE80445A0EB1360704700000000F9
:1012A000000000000000000000000000000000003E
:1012B000000000000000000000000000000000002E
:1012C00090F800F06DE9024520F007016FF0000C86
:1012D00010F0070491F820F040F049804FF000042E
:1012E0006FF00700D1E9002391F840F000F1080009
:1012F00082FA4CF2A4FA8CF283FA4CF3A2FA8CF341
:101300004BBBD1E9022382FA4CF200F10800A4FAA7
:101310008CF283FA4CF3A2FA8CF3E3B9D1E90423FB
:1013200082FA4CF200F10800A4FA8CF283FA4CF332
:10133000A2FA8CF37BB9D1E9062301F1200182FAEC
:101340004CF200F10800A4FA8CF283FA4CF3A2FAF2
:101350008CF3002BC6D0002A04BF04301A4612BA00
:10136000B2FA82F2FDE8024500EBD2007047D1E903
:10137000002304F00305C4F100004FEAC50514F092
:10138000040F91F840F00CFA05F562EA05021CBF63
:1013900063EA050362464FF00004A9E7000000007D
:1013A00001F0FF01102A2BDB10F0070F08D010F816
:1013B000013B013A8B422DD010F0070F42B3F6D11A
:1013C000F0B441EA012141EA014122F007047FF033
:1013D00000070023F0E80256083C85EA010586EA8A
:1013E000010685FA47F5A3FA87F586FA47F6A5FAC6
:1013F00087F68EB9EED1F0BC01F0FF0102F00702D2
:1014000032B110F8013B013A83EA010313B1F8D17C
:101410000020704701387047002D06BF354603385D
:10142000073815F0010F07D1013015F4807F02BF96
:10143000013015F4C03F0130F0BC0138704700BFE7
:101440004FF0FF3C06E000BF4FF0010C02E000BF90
:101450004FF0010C4DF804CD4FEA410C7FEA6C5C73
:101460004FEA430C18BF7FEA6C5C1BD001B050EA16
:10147000410C0CBF52EA430C91EA030F02BF90EA01
:10148000020F0020704710F1000F91EA030F58BFC0
:10149000994208BF90422CBFD8176FEAE37040F022
:1014A000010070474FEA410C7FEA6C5C02D150EAC0
:1014B000013C07D14FEA430C7FEA6C5CD6D152EA7B
:1014C000033CD3D05DF8040B704700BF8446104640
:1014D00062468C461946634600E000BF01B5FFF73F
:1014E000B7FF002848BF10F1000F01BD4DF808ED0F
:1014F000FFF7F4FF0CBF012000205DF808FB00BFE0
:101500004DF808EDFFF7EAFF34BF012000205DF839
:1015100008FB00BF4DF808EDFFF7E0FF94BF012086
:1015200000205DF808FB00BF4DF808EDFFF7CEFF87
:1015300094BF012000205DF808FB00BF4DF808EDC6
:10154000FFF7C4FF34BF012000205DF808FB00BF97
:101550004FEA410C7FEA6C5C02D150EA013C0AD1AF
:101560004FEA430C7FEA6C5C02D152EA033C02D1A1
:101570004FF0000070474FF0010070474FEA410202
:1015800012F5001215D211D56FF47873B3EB6252D5
:1015900012D94FEAC12343F0004343EA505311F0FC
:1015A000004F23FA02F018BF404270474FF000008E
:1015B000704750EA013005D111F0004008BF6FF0CC
:1015C000004070474FF00000704700BF00B583B087
:1015D000214BD3F8D82042F00102C3F8D820D3F829
:1015E000D82002F001020092009AD3F8D82042F0ED
:1015F0000202C3F8D820D3F8D83003F002030193D5
:10160000019B002205210B2001F0E4FB0B2001F0DF
:1016100017FC002205210C2001F0DCFB0C2001F05E
:101620000FFC002205210D2001F0D4FB0D2001F05C
:1016300007FC00220521382001F0CCFB382001F006
:10164000FFFB00220521392001F0C4FB392001F005
:10165000F7FB03B05DF804FB0044025810B51648D0
:10166000164B036000238360C3600374437401223C
:1016700082740324446182611D21C1610A220262D5
:1016800044628262C162026343630E228263C36367
:101690000422026442648264C26403654265836515
:1016A000C36502664366826603F0B8F800B910BDF0
:1016B00000F078FCFBE700BF380D002400A00040DC
:1016C00010B51748174B036000238360C360037491
:1016D0004374837403244461012282611D21C1612A
:1016E0000A22026244628262C162026340F20642DE
:1016F00042630E228263C3630422026442648264F2
:10170000C264036542658365C3650266436682669B
:1017100003F084F800B910BD00F044FCFBE700BF03
:10172000D80D002400A4004010B51748174B0360E3
:1017300000238360C360037443748374032444618F
:10174000012282611D21C1610A2202624462826219
:10175000C162026340F6120242630E228263C363D7
:101760000422026442648264C26403654265836544
:10177000C36502664366826603F050F800B910BD87
:1017800000F010FCFBE700BF780E002400D40040FE
:1017900030B5BBB004460021359136913791389170
:1017A0003991B82206A814F077FC23687B4A93424B
:1017B00008D07B4A934253D07A4A934200F09E80ED
:1017C0003BB030BD4FF400420023CDE906234FF07B
:1017D0008053219306A805F00BFD80BB724A136865
:1017E00001331360012B2DD0704BD3F8E02042F071
:1017F0000802C3F8E020D3F8E03003F008030193B7
:10180000019B0323359302233693002437943894A5
:101810000923399335A9664803F08EFD2246052138
:10182000132001F0D7FA132001F00AFB224605210C
:10183000152001F0CFFA152001F002FBC0E700F0FF
:10184000B1FBCBE7594BD3F8EC2042F48072C3F8DC
:10185000EC20D3F8EC3003F480730093009BC3E7D3
:101860004FF400420023CDE906234FF0805321932B
:1018700006A805F0BDFC80BB4B4A1368013313601A
:10188000012B2DD0494BD3F8E02042F00202C3F8DF
:10189000E020D3F8E03003F002030393039B6023BE
:1018A00035930223369300243794389409233993CF
:1018B00035A9404803F040FD22460521142001F0DF
:1018C00089FA142001F0BCFA22460521162001F005
:1018D00081FA162001F0B4FA72E700F063FBCBE75F
:1018E000324BD3F8EC2042F48072C3F8EC20D3F8EA
:1018F000EC3003F480730293029BC3E74FF4004281
:101900000023CDE906234FF08053219306A805F06C
:101910006FFC88BB244A136801331360012B2ED05F
:10192000224BD3F8E02042F00802C3F8E020D3F8BD
:10193000E03003F008030593059B4FF440533593C3
:10194000022336930024379438940525399535A918
:10195000174803F0F1FC224629469F2001F03AFA8D
:101960009F2001F06DFA22462946A02001F032FAAC
:10197000A02001F065FA23E700F014FBCAE70B4B47
:10198000D3F8EC2042F48072C3F8EC20D3F8EC30AA
:1019900003F480730493049BC2E700BF00A00040DF
:1019A00000A4004000D40040340D0024004402583C
:1019B000000C02580004025808B50368274A9342F5
:1019C00006D0274A93421AD0264A93422ED008BD09
:1019D000254A1368013B136033B9244AD2F8EC302E
:1019E00023F48073C2F8EC300321214803F0AEFDEC
:1019F000132001F033FA152001F030FAE7E71A4A14
:101A00001368013B136033B9184AD2F8EC3023F461
:101A10008073C2F8EC306021164803F097FD142063
:101A200001F01CFA162001F019FAD0E70E4A1368EB
:101A3000013B136033B90D4AD2F8EC3023F48073C4
:101A4000C2F8EC304FF44051094803F07FFD9F206D
:101A500001F004FAA02001F001FAB8E700A000406C
:101A600000A4004000D40040340D0024004402587B
:101A7000000C02580004025808B50CF053FD012078
:101A80000AF05DFCFBE708B501200AF058FCFBE713
:101A9000034B0360034B0B6080231360704700BF50
:101AA00048110024480F0024034B0360034B0B60D4
:101AB0004FF4807313607047D0190024D0150024B0
:101AC00010B5D4B06B4C0DF59A7CA646BEE80F005D
:101AD000ACE80F009EE807008CE8070000214DA845
:101AE0000AF0F8FB644B18600DF58C7C04F11C0EB9
:101AF000BEE80F00ACE80F009EE807008CE8070086
:101B0000002146A80AF0E6FB5C4B18600DF1FC0CC6
:101B100004F1380EBEE80F00ACE80F009EE80700A5
:101B20008CE8070000213FA80AF0D4FB544B186052
:101B30000DF1E00C04F1540EBEE80F00ACE80F000C
:101B40009EE807008CE80700002138A80AF0C2FBD5
:101B50004C4B18600DF1C40C04F1700EBEE80F0080
:101B6000ACE80F009EE807008CE80700002131A8D0
:101B70000AF0B0FB444B18600DF1A80C04F18C0E78
:101B8000BEE80F00ACE80F009EE807008CE80700F5
:101B900000212AA80AF09EFB3C4B18600DF18C0C2A
:101BA00004F1A80EBEE80F00ACE80F009EE80700A5
:101BB0008CE80700002123A80AF08CFB344B186046
:101BC0000DF1700C04F1C40EBEE80F00ACE80F007C
:101BD0009EE807008CE8070000211CA80AF07AFBA9
:101BE0002C4B18600DF1540C04F1E00EBEE80F0010
:101BF000ACE80F009EE807008CE80700002115A85C
:101C00000AF068FB244B18600DF1380C04F1FC0E4F
:101C1000BEE80F00ACE80F009EE807008CE8070064
:101C200000210EA80AF056FB1C4B18600DF11C0C8D
:101C300004F58C7EBEE80F00ACE80F009EE80700BC
:101C40008CE80700002107A80AF044FB144B186039
:101C5000EC4604F59A740FCCACE80F0094E807004A
:101C60008CE80700002168460AF034FB0D4B186031
:101C700054B010BD20E60108180F00241C0F0024EA
:101C8000200F0024240F0024340F0024400F0024D0
:101C9000440F0024280F0024380F00242C0F0024A8
:101CA000300F00243C0F00242DE9F04F8DB00024AC
:101CB0000794089409940A940B94AE4BD3F8E0204F
:101CC00042F01002C3F8E020D3F8E02002F0100246
:101CD0000192019AD3F8E02042F00402C3F8E02018
:101CE000D3F8E02002F004020292029AD3F8E02036
:101CF00042F08002C3F8E020D3F8E02002F0800236
:101D00000392039AD3F8E02042F00102C3F8E020E6
:101D1000D3F8E02002F001020492049AD3F8E02004
:101D200042F00202C3F8E020D3F8E02002F0020201
:101D30000592059AD3F8E02042F00802C3F8E020AB
:101D4000D3F8E03003F008030693069BDFF82CA2DB
:101D500001224EF22901504603F09AFCDFF820825E
:101D600022460521404603F093FC22464FF42241CF
:101D7000814803F08DFCDFF80C9222464FF440615D
:101D8000484603F085FC01224FF48051484603F099
:101D90007FFCDFF8F4B122464FF48061584603F02F
:101DA00077FC4FF4604307930127089709940A943E
:101DB00007A9504603F0C0FA29230793089709940E
:101DC00003260A9607A9504603F0B6FA052307939F
:101DD000089709940A9407A9404603F0ADFA022532
:101DE0000795089509940A9609230B9307A940467D
:101DF00003F0A2FA08230793089509940A9606238C
:101E00000B9307A9404603F097FA202307930896FF
:101E1000099407A9404603F08FFA10230793089608
:101E2000099407A9504603F087FA07970895099483
:101E30000A964FF0040ACDF82CA007A9484603F0F3
:101E40007BFACDF81CA0089509940A9609230B93F8
:101E500007A9484603F070FA4FF422430793089706
:101E600009940A9407A9444803F066FA4FF4A05372
:101E700007934FF488130893099407A93E4803F089
:101E80005BFA4FF400630793089509940A960B23B5
:101E90000B9307A9384803F04FFA4FF440630793B8
:101EA000089709940A9407A9484603F045FA4FF4A5
:101EB00080530793089709970A9607A9484603F0A5
:101EC0003BFA4FF4004ACDF81CA0089509940A94F7
:101ED0000B9507A9484603F02FFA4FF48063079348
:101EE000089709940A9407A9584603F025FA4FF475
:101EF00000630793089509940A9609230B9307A991
:101F0000584603F019FA4FF4807307930895099423
:101F10000A940B9407A9404603F00EFACDF81CA0D2
:101F20000894099407A9404603F006FA7023079322
:101F3000089509940A9407230B9307A9584603F0C0
:101F4000FBF980230793089509940A9605230B93C0
:101F500007A9584603F0F0F921464FF0006000F061
:101F60001DFF21464FF0807000F018FF0DB0BDE856
:101F7000F08F00BF004402580010025800080258B9
:101F80000000025800040258000C025808B502680C
:101F9000034B9A4200D008BD00F0DAFEFBE700BF19
:101FA00000E0004072B6FEE700B59DB04C22002173
:101FB00009A814F071F82022002101A814F06CF88F
:101FC000022004F0DBF900230093264B9A6922F4E7
:101FD00040429A619B6903F440430093009B214B6C
:101FE0009B6913F4005FFAD0232309934FF48033E5
:101FF0000A9301220C9240230D930F920223129315
:102000001393149328211591169204221792189372
:102010000C23199300231A931B9309A804F0E0F9E9
:10202000D8B93F230193032102910023039308238E
:1020300004934023059306934FF48062079208931C
:1020400001A804F00FFE50B94FF480220021084689
:1020500004F0BCFC1DB05DF804FBFFF7A3FFFFF725
:10206000A1FF00BF0048025880B500F043FEFFF713
:102070009BFFFFF719FEFFF7A9FAFFF7EFFAFFF74B
:102080001FFBFFF751FB00F0F3FB00F081FB00F0BA
:1020900023FC00F0B9FB00F06BF800F035FB0CF00E
:1020A00041FA0322002101200AF00AFE294D28608E
:1020B0000322002101200AF003FE274F386003228B
:1020C000002101200AF0FCFD244E306003200BF0BB
:1020D000BAF90146224C206038680BF0BAF9216841
:1020E00030680BF0B6F9216828680BF0B2F90022CD
:1020F0001C210A200AF0E4FD1A4B186040B30120AD
:102100000AF0EFFE184B1860184C002201212046FF
:1021100003F0BEFA00220421204603F0B9FA04F5C8
:10212000805400224FF40071204603F0B1FA0022DF
:102130004FF40051204603F0ABFA4FF4F0700EF06C
:1021400013FF0FF057F8FFF7BBFC0AF0BEF8FEE7ED
:10215000FFF728FF641E0024601E0024681E002470
:102160006C1E00245C1E0024581E0024000002582F
:1021700008B51548154B03604FF4800343600023F6
:1021800083600722C2604FF0007202614FF08072DC
:1021900042614FF0806282614FF08042C26103620F
:1021A00043628362C36242638363C36303644364C1
:1021B0008364C36403654365836505F0BDFF00B9AF
:1021C00008BDFFF7EFFEFBE7601F0024003800406A
:1021D0002DE9F041B8B00446002133913491359196
:1021E00036913791B82204A813F056FF2268494B64
:1021F0009A4202D038B0BDE8F0814FF480520023FB
:10220000CDE9042304A804F0F3FF002879D1424B60
:10221000D3F8E82042F48042C3F8E820D3F8E8205D
:1022200002F480420192019AD3F8E02042F00402C5
:10223000C3F8E020D3F8E02002F004020292029AF0
:10224000D3F8E02042F00202C3F8E020D3F8E030F7
:1022500003F002030393039B062333934FF002081A
:10226000CDF8D0800025359503273697052637967B
:1022700033A92A4803F060F84FF400533393CDF8A4
:10228000D08035953697379633A9254803F054F812
:102290002448254B0360272343608560C5604FF4C5
:1022A0008063036145618561C5614FF4403303621A
:1022B000456200F0F9FF38BB1A4BE3679C631B488B
:1022C0001B4B036028234360402383600023C360CB
:1022D0004FF48062026143618361C3614FF4003255
:1022E0000262436200F0E0FF88B9104BA3679C6371
:1022F00000220521242000F06DFD242000F0A0FD27
:1023000078E7FFF74FFE82E7FFF74CFED4E7FFF7D1
:1023100049FEEAE70038004000440258000802582D
:1023200000040258701E002410040240E81E00241D
:102330002804024000B583B00A4BD3F8F42042F0E1
:102340000202C3F8F420D3F8F43003F0020301933F
:10235000019B00220F216FF0010000F03BFD03B054
:102360005DF804FB004402580F2801D90120704792
:1023700010B58AB0044600220146A12000F02AFDD3
:10238000A12000F05DFD174B1C60174BD3F8EC202B
:1023900042F08072C3F8EC20D3F8EC3003F0807385
:1023A0000093009B01A902A804F0ECFD04F0D8FD05
:1023B00043000E48A0FB03239B0C013B0C480D4A35
:1023C000026040F2E732C260436000230361836031
:1023D00006F0E6FD10B101200AB010BD044806F079
:1023E0003DFCF9E70C0000240044025883DE1B4347
:1023F000E81F002400E00040FEE7FEE7FEE7FEE7FE
:10240000FEE7704708B5024801F03CFD08BD00BF7B
:102410007421002408B5024801F034FD08BD00BF56
:102420008420002408B5024801F02CFD08BD00BF3F
:10243000FC20002408B5024802F0F0FD08BD00BFF2
:10244000380D002408B5024802F0E8FD08BD00BFC1
:10245000D80D002408B5024802F0E0FD08BD00BF19
:10246000380D002408B5024802F0D8FD08BD00BFB1
:10247000D80D002408B5024806F082F908BD00BF57
:10248000601F002408B5024807F086F808BD00BFA9
:10249000EC21002408B5024807F07EF808BD00BF13
:1024A0001423002408B5024801F0ECFC08BD00BF6D
:1024B000701E002408B5024801F0E4FC08BD00BF0E
:1024C000E81E002408B5024803F019FC08BD00BF4F
:1024D0003049032408B5024807F05EF808BD00BF84
:1024E0008022002408B5024802F098FD08BD00BF14
:1024F000780E002408B5024802F090FD08BD00BF28
:10250000780E002408B5024806F0FCFB08BD00BFA9
:10251000E81F00240120704708B513F0DBFA1623EA
:1025200003604FF0FF3008BD08B54FF0FF31FFF7F3
:10253000F3FFFEE770B50C461646002506E0AFF344
:102540000080214601F8010B01350C46B542F6DB4F
:10255000304670BD70B50C461646002504E014F8F0
:10256000010B00F08DFB0135B542F8DB304670BD44
:102570004FF0FF3070474FF400534B60002070471E
:10258000012070470020704710B503460C4A0D49E2
:102590000D48006840B10C4800680344521A934249
:1025A00006D8094A136010BD0748084C0460F2E7DA
:1025B00013F090FA0C2303604FF0FF30F3E700BFF5
:1025C000000005240010000034200024E0600324F3
:1025D000224AD2F8883043F47003C2F88830204B86
:1025E0001B6803F00F03062B06D81D4A136823F05F
:1025F0000F0343F0070313601A4B1A6842F00102FD
:102600001A6000221A611968174A0A401A60144BAE
:102610001B6813F0080F06D0114A136823F00F034C
:1026200043F0070313600F4B00229A61DA611A62CC
:102630000E4999620E49D9620E4919635A6399632A
:10264000DA6319645A64196821F4802119601A66E2
:10265000094B43F2D2021A60704700BF00ED00E060
:1026600000200052004402587FEDF6EA0002020208
:102670000000FF01800201010040005202680A4B85
:102680009A4200D0704782B0084BD3F8E82042F05D
:102690000202C3F8E820D3F8E83003F00203019304
:1026A000019B02B0704700BF000400400044025884
:1026B00000B587B00023019302930393049305931D
:1026C00002680E4B9A4202D007B05DF804FB0C4B37
:1026D000D3F8E02042F00202C3F8E020D3F8E03063
:1026E00003F002030093009B0223019302930593DE
:1026F00001A9044802F020FEE6E700BF0004004004
:10270000004402580004025800B58BB00023079320
:102710000893099300930193029303930493059301
:1027200006931948194A026017224260836042F2F8
:102730000F72C26003618023836106F061FCC8B937
:1027400000230793099307A90F4806F03BFEA0B9A1
:102750006023009300230193029304930C226946A3
:10276000094806F0C7FC58B90748FFF7A1FF0BB0AE
:102770005DF804FBFFF716FCE2E7FFF713FCE7E761
:10278000FFF710FCF0E700BF3820002400040040F1
:1027900008B51A481A4B03601A4B43604FF4805334
:1027A00083604FF40053C3604FF4806303610C23D4
:1027B000436100238361C36103624362836207F064
:1027C00012FE70B900210D4807F0E0FE60B900214B
:1027D0000A4807F000FF50B9084807F0B8FE48B9AA
:1027E00008BDFFF7DFFBEDE7FFF7DCFBEFE7FFF7E7
:1027F000D9FBF1E7FFF7D6FBF2E700BF1423002473
:1028000000500040A086010008B51748174B036030
:102810004FF4E133436000238360C36003610C2203
:1028200042618361C36103624362836207F0DBFD3F
:1028300070B900210C4807F0A9FE60B900210A48D0
:1028400007F0C9FE50B9084807F081FE48B908BD35
:10285000FFF7A8FBEDE7FFF7A5FBEFE7FFF7A2FB0C
:10286000F1E7FFF79FFBF2E7A82300240078004080
:1028700008B51748174B03604FF4E133436000235A
:102880008360C36003610C2242618361C3610362A0
:102890004362836207F0A7FD70B900210C4807F07E
:1028A00075FE60B900210A4807F095FE50B9084846
:1028B00007F04DFE48B908BDFFF774FBEDE7FFF7E1
:1028C00071FBEFE7FFF76EFBF1E7FFF76BFBF2E75A
:1028D000EC2100240010014008B51748174B036095
:1028E0004FF4E133436000238360C36003610C2233
:1028F00042618361C36103624362836207F073FDD7
:1029000070B900210C4807F041FE60B900210A4867
:1029100007F061FE50B9084807F019FE48B908BD34
:10292000FFF740FBEDE7FFF73DFBEFE7FFF73AFB73
:10293000F1E7FFF737FBF2E780220024001C01409B
:102940002DE9F041BEB00446002139913A913B9106
:102950003C913D91B8220AA813F09EFB2368B64A29
:1029600093420DD0B54A93427BD0B54A934200F0D2
:10297000AB80B44A934200F0FF803EB0BDE8F081E6
:1029800002220023CDE90A230AA804F031FC002822
:1029900061D1AD4BD3F8E82042F48012C3F8E820AF
:1029A000D3F8E82002F480120192019AD3F8E020D3
:1029B00042F00402C3F8E020D3F8E02002F0040261
:1029C0000292029AD3F8E02042F00802C3F8E02015
:1029D000D3F8E03003F008030393039B4FF48053D4
:1029E00039934FF00208CDF8E88000253B95032786
:1029F0003C9708263D9639A9944802F09DFC042393
:102A00003993CDF8E8803B953C973D9639A990489D
:102A100002F092FC8F48904B036041234360856035
:102A2000C5604FF48063036145618561C5614FF402
:102A300040330362456200F037FC78B9854BC4F837
:102A400080309C6300220521352000F0C3F9352039
:102A500000F0F6F991E7FFF7A5FA9AE7FFF7A2FA77
:102A6000ECE702220023CDE90A230AA804F0C0FB08
:102A700038BB754BD3F8E82042F08042C3F8E82019
:102A8000D3F8E82002F080420492049AD3F8E020C0
:102A900042F01002C3F8E020D3F8E03003F0100356
:102AA0000593059B4FF4C073399302233A93002397
:102AB0003B933C9307233D9339A9684802F03CFCC3
:102AC0005BE7FFF76FFAD4E701220023CDE90A2381
:102AD0000AA804F08DFB002848D15B4BD3F8F02006
:102AE00042F01002C3F8F020D3F8F02002F01002F8
:102AF0000692069AD3F8E02042F00102C3F8E020E3
:102B0000D3F8E03003F001030793079B4FF4C06351
:102B1000399302233A9300253B9503233C930723E3
:102B20003D9339A94E4802F007FC4E484E4B0360D6
:102B3000292343608560C5604FF48063036145616C
:102B40008561C5614FF440330362456200F0ACFB20
:102B500078B9444BC4F880309C63002205212520BD
:102B600000F038F9252000F06BF906E7FFF71AFAB4
:102B7000B3E7FFF717FAECE701220023CDE90A23B8
:102B80000AA804F035FB002874D12F4BD3F8F020AD
:102B900042F08002C3F8F020D3F8F02002F0800267
:102BA0000892089AD3F8E02042F01002C3F8E0201F
:102BB000D3F8E03003F010030993099B0423399301
:102BC0004FF00208CDF8E88000253B9503273C979D
:102BD0003D93224E39A9304602F0AEFB08233993CB
:102BE000CDF8E8803B953C970B233D9339A93046BF
:102BF00002F0A2FB1D481E4B0360762343608560F4
:102C0000C5604FF48063036145618561C5614FF420
:102C100040330362456200F047FB70BB134BC4F8BE
:102C200080309C63002205219C2000F0D3F89C207A
:102C300000F006F9A1E600BF005000400078004017
:102C400000100140001C01400044025800080258D6
:102C5000000C025884200024280002400010025872
:102C6000000002587421002410000240FC200024BF
:102C700040000240FFF796F987E7FFF793F9CDE7A9
:102C800000B583B001904FF0FF33012201A9034842
:102C900007F0DCFA019803B05DF804FBA8230024D8
:102CA000DFF834D0FFF794FC0C480D490D4A00239F
:102CB00002E0D458C4500433C4188C42F9D30A4AF1
:102CC0000A4C002301E013600432A242FBD312F04D
:102CD00007FFFFF7C9F97047000005240000002432
:102CE000180D002404020208180D0024E0600324DB
:102CF000FEE7000010B5032000F05AF803F0B8FE1C
:102D00000F498B69C3F303230E4AD35C03F01F03FF
:102D1000D8408B6903F00F03D35C03F01F0320FA44
:102D200003F3094A1360094B18600F20FFF71CFBDF
:102D300010B10124204610BD0446FFF7FBFAF9E765
:102D4000004402585CE8010804000024000000244C
:102D5000034B1B78034A11680B441360704700BF94
:102D6000080000243C240024014B1868704700BF71
:102D70003C24002438B50446FFF7F6FF0546B4F1BD
:102D8000FF3F02D0044B1B781C44FFF7EDFF401BB4
:102D9000A042FAD338BD00BF08000024034A53689C
:102DA00023EA00030B435360704700BF0004005840
:102DB0000649CB6823F4E0631B041B0C000200F4FB
:102DC000E0600343024A1A43CA60704700ED00E026
:102DD0000000FA0500B5174BDB68C3F30223C3F10B
:102DE000070CBCF1040F28BF4FF0040C03F1040ED4
:102DF000BEF1060F14D9033B4FF0FF3E0EFA0CFC58
:102E000021EA0C0199400EFA03F322EA0303194365
:102E1000002807DB0901C9B2074B19545DF804FB10
:102E20000023E9E700F00F000901C9B2034B195470
:102E3000F4E700BF00ED00E000E400E014ED00E086
:102E4000002807DB00F01F02400901239340024ADB
:102E500042F82030704700BF00E100E000280CDBA2
:102E600000F01F024009012393402030034A42F83A
:102E70002030BFF34F8FBFF36F8F704700E100E04A
:102E8000F0B4876D0468664E664DAC4218BFB4421C
:102E900042D01835AC423FD01835AC423CD0183542
:102EA000AC4239D01835AC4236D01835AC4233D0AC
:102EB0001835AC4230D005F55675AC422CD01835DB
:102EC000AC4229D01835AC4226D01835AC4223D0BC
:102ED0001835AC4220D01835AC421DD01835AC4264
:102EE0001AD01835AC4217D04F4DAC4214D014351F
:102EF000AC4211D01435AC420ED01435AC420BD0DC
:102F00001435AC4208D01435AC4205D01435AC426F
:102F100002D01435AC4207D1446E856E6560C46E34
:102F200014B1046F456F656004683D4E3D4DAC4281
:102F300018BFB44252D01835AC424FD01835AC420D
:102F40004CD01835AC4249D01835AC4246D0183573
:102F5000AC4243D01835AC4240D005F55675AC4272
:102F60003CD01835AC4239D01835AC4236D0183583
:102F7000AC4233D01835AC4230D01835AC422DD0ED
:102F80001835AC422AD01835AC4227D0264E274DF2
:102F9000AC4218BFB44211D0254DAC420ED014350E
:102FA000AC420BD01435AC4208D01435AC4205D03D
:102FB0001435AC4202D01435AC4224D1C46D04F0B7
:102FC0001F050124AC407C60046863608368402B6B
:102FD00020D0036899600368DA6014E0C46D04F0DF
:102FE0001F0C3F2404FA0CF4BC6005682C6824F420
:102FF00080242C60046863608368402B05D00368DC
:1030000099600368DA60F0BC704703689A600368EF
:10301000D960F8E703689A600368D960F3E700BFF6
:103020001000024028000240085402581C54025864
:103030003054025803682749274A934218BF8B42ED
:103040002FD0183293422CD01832934229D0183204
:10305000934226D01832934223D01832934220D084
:10306000183293421DD002F55672934219D018328D
:10307000934216D01832934213D01832934210D094
:10308000183293420DD0183293420AD0183293422C
:1030900007D01832934204D023F0FF038365806D7C
:1030A000704710B4D9B210390C4AA2FB0142C2F3E6
:1030B00002120B4CA25CC2655F2907D9094A1A406B
:1030C00004328265806D5DF8044B7047054A1A40F2
:1030D0008265F7E71000024028000240ABAAAAAAC6
:1030E0006CE8010800FCFFFF83699BB9836A012B30
:1030F0000AD0022B02D00BB100207047C36A13F034
:10310000807F2AD100207047C36AB3F1C07F26D0E8
:1031100000207047B3F5005F0AD0836A022B26D9DE
:10312000032B26D1C36A13F0807F24D1002070477F
:10313000836A032B03D8DFE803F01404140A002089
:103140007047C36A13F0807F0DD100207047C36AB7
:10315000B3F1C07F09D000207047012070470120E3
:1031600070470120704701207047012070470120FF
:103170007047002070470120704700000368224913
:10318000224A934218BF8B4228D01432934225D052
:103190001432934222D0143293421FD014329342FD
:1031A0001CD01432934219D01432934216D0DAB2A2
:1031B000103A1749A1FB0212120916491944A8290D
:1031C0001FD9154B13449B000366144B436602F052
:1031D0001F02012303FA02F282667047DBB2083B4A
:1031E0000F4AA2FB03230F4A02EB1312920002665E
:1031F0000D4A4266C3F30413012202FA03F3836605
:1032000070470832DDE700BF085402581C540258CA
:10321000ABAAAAAAF0FBFDBF008200108008024002
:10322000CDCCCCCC009600168058025801794A1EAD
:10323000072A2CD830B40368154D164CA34218BF8A
:10324000AB4218D01434A34215D01434A34212D088
:103250001434A3420FD01434A3420CD01434A3422C
:1032600009D01434A34206D00B4B0B449B00C36619
:103270000A4B036705E00A4B0B449B00C366094BEE
:103280000367012303FA02F2426730BC70477047BC
:10329000085402581C5402583F8200104009024052
:1032A0003F9600164059025870B50446FFF75CFD82
:1032B000002C00F0B381054623685349534A9342DA
:1032C00018BF8B420CBF0122002250D030318B42FC
:1032D0004DD018318B424AD018318B4247D018312B
:1032E0008B4244D018318B4241D018318B423ED0B2
:1032F00001F556718B423AD018318B4237D01831D4
:103300008B4234D018318B4231D018318B422ED0C1
:1033100018318B422BD018318B4228D018318B4278
:1033200025D03B493B4A934218BF8B4200F02E8187
:10333000394A934200F02A811432934200F02681E8
:103340001432934200F022811432934200F01E8125
:103350001432934200F01A811432934200F0168125
:1033600040236365032384F8353001204AE00221BD
:1033700084F83510002184F834107ABB274A934230
:103380002CD01832934229D01832934226D01832CA
:10339000934223D01832934220D0183293421DD04A
:1033A00002F55672934219D01832934216D0183251
:1033B000934213D01832934210D0183293420DD05A
:1033C000183293420AD01832934207D018329342EF
:1033D00004D01A6822F001021A6003E01A6822F091
:1033E00001021A6023681A6812F0010F18D0FFF763
:1033F000BBFC431B052BF5D920236365032384F80D
:103400003530012070BD00BF10000240280002408E
:10341000085402581C5402583054025840000240CC
:103420001A687F481040A168E2680A4321690A438C
:1034300061690A43A1690A43E1690A43216A0A43AF
:103440000243616A042900F096806168A1F12905B0
:10345000A1F13F00032888BF052D0AD9A1F147003B
:10346000012806D9A1F14F00032802D97439032994
:1034700001D842F480121A602668756925F00705A4
:10348000636A1D43042B08D1A36A1D43E36A23B179
:103490002046FFF729FE002872D175612046FFF70C
:1034A000C9FDE36D03F01F023F239340836023684F
:1034B0005C495D4A934218BF8B4242D01832934216
:1034C0003FD0183293423CD01832934239D0183250
:1034D000934236D01832934233D01832934230D0D0
:1034E00002F5567293422CD01832934229D01832EA
:1034F000934226D01832934223D01832934220D0E0
:10350000183293421DD0183293421AD01832934287
:1035100017D0464A934214D01432934211D0143239
:1035200093420ED0143293420BD01432934208D0FF
:103530001432934205D01432934202D01432934293
:1035400013D12046FFF71AFEA368802B59D0236EB3
:1035500022791A60636EA26E5A606368013B072B82
:1035600052D90023E3662367636700206065012367
:1035700084F8353046E7E16A206B01430A4364E78B
:1035800040236365012084F835003BE7022284F87C
:103590003520002284F834201A6825491140A26899
:1035A000402A2CD0802A27D00022E06842EAD002AC
:1035B000206942EAD002606942EAD002A06942EA88
:1035C000D002E06942EAD002206A42EA10120A43BD
:1035D0001A602268174B1344174AA2FB03231B09E6
:1035E0009B00E3652046FFF725FDE26D02F01F0119
:1035F00001228A4042605AE74FF48042D5E7102208
:10360000D3E700236360A2E72046FFF70FFEE36ED7
:1036100000221A60236F626F5A60A6E70120F1E66C
:103620003F8010FE1000024028000240085402585B
:103630000F00FEFFF8ABFDA7CDCCCCCC002800F0EE
:103640003E8170B5044690F83400012800F03981BD
:10365000012084F8340094F83500C0B2012807D066
:103660004FF400636365002384F83430012070BD9B
:10367000022084F83500002060652068924E934D4A
:10368000A84218BFB0422FD01835A8422CD0183508
:10369000A84229D01835A84226D01835A84223D0F0
:1036A0001835A84220D01835A8421DD005F556750A
:1036B000A84219D01835A84216D01835A84213D000
:1036C0001835A84210D01835A8420DD01835A84298
:1036D0000AD01835A84207D01835A84204D005688A
:1036E00025F00105056003E0056825F0010505608A
:1036F0002046FFF7C5FB23687349744A934218BFFD
:103700008B4238D01832934235D01832934232D09F
:10371000183293422FD0183293422CD01832934251
:1037200029D01832934226D002F55672934222D005
:10373000183293421FD0183293421CD01832934251
:1037400019D01832934216D01832934213D018323F
:10375000934210D0183293420DD01A6822F00E0214
:1037600042F00A021A60236C93B12268136843F096
:10377000040313600CE01A6822F01E0242F01602E5
:103780001A60236C23B12268136843F008031360A6
:1037900023684D494D4A934218BF8B4242D018329C
:1037A00093423FD0183293423CD01832934239D0E2
:1037B0001832934236D01832934233D018329342A3
:1037C00030D002F5567293422CD01832934229D051
:1037D0001832934226D01832934223D018329342A3
:1037E00020D0183293421DD0183293421AD018328A
:1037F000934217D0364A934214D01432934211D0D8
:10380000143293420ED0143293420BD014329342AE
:1038100008D01432934205D01432934202D01432AD
:1038200093420ED1236E1A6812F4803F03D01A68B7
:1038300042F480721A60E36E1BB11A6842F480721F
:103840001A6023682049214A934218BF8B4230D026
:10385000183293422DD0183293422AD01832934214
:1038600027D01832934224D01832934221D01832F4
:1038700093421ED002F5567293421AD018329342E8
:1038800017D01832934214D01832934211D0183204
:1038900093420ED0183293420BD01832934208D084
:1038A0001832934205D01A6842F001021A600020D3
:1038B000DDE61A6842F001021A600020D7E6012016
:1038C00070470220D3E600BF1000024028000240EB
:1038D0000854025870B50446FFF746FA002C00F071
:1038E0009181054694F83530DBB2022B06D0802357
:1038F0006365002384F83430012070BD23688C494F
:103900008C4A934218BF8B4230D0183293422DD04C
:10391000183293422AD01832934227D01832934259
:1039200024D01832934221D0183293421ED002F58F
:10393000567293421AD01832934217D018329342DB
:1039400014D01832934211D0183293420ED018324C
:1039500093420BD01832934208D01832934205D0CC
:103960001A6822F00E021A60266809E01A6822F02E
:103970001E021A602268536923F08003536126688F
:1039800023686B496B4A934218BF8B4242D018326E
:1039900093423FD0183293423CD01832934239D0F0
:1039A0001832934236D01832934233D018329342B1
:1039B00030D002F5567293422CD01832934229D05F
:1039C0001832934226D01832934223D018329342B1
:1039D00020D0183293421DD0183293421AD0183298
:1039E000934217D0544A934214D01432934211D0C8
:1039F000143293420ED0143293420BD014329342BD
:103A000008D01432934205D01432934202D01432BB
:103A1000934204D1226E136823F4807313602368E9
:103A20004349444A934218BF8B422FD018329342E5
:103A30002CD01832934229D01832934226D0183213
:103A4000934223D01832934220D0183293421DD093
:103A500002F55672934219D01832934216D018329A
:103A6000934213D01832934210D0183293420DD0A3
:103A7000183293420AD01832934207D01832934238
:103A800004D01A6822F001021A6003E01A6822F0DA
:103A900001021A60336813F0010F0ED0FFF764F9CA
:103AA000431B052BF6D920236365032384F83530A7
:103AB000002384F8343001201FE723681C491D4A85
:103AC000934218BF8B4239D01832934236D0183205
:103AD000934233D01832934230D0183293422DD0D3
:103AE000183293422AD01832934227D002F55672E8
:103AF000934223D01832934220D0183293421DD0E3
:103B0000183293421AD01832934217D01832934287
:103B100014D01832934211D0183293420ED0A16DB6
:103B2000E36D03F01F02012393404B600DE000BFE3
:103B3000100002402800024008540258A16DE36DB5
:103B400003F01F023F2393408B6023682E492F4AC6
:103B5000934218BF8B4242D0183293423FD0183262
:103B600093423CD01832934239D01832934236D027
:103B70001832934233D01832934230D002F5567245
:103B800093422CD01832934229D01832934226D037
:103B90001832934223D01832934220D018329342E5
:103BA0001DD0183293421AD01832934217D0184AB7
:103BB000934214D01432934211D0143293420ED057
:103BC000143293420BD01432934208D014329342F1
:103BD00005D01432934202D0143293420BD1636E5B
:103BE000A26E5A60E36E33B11A6822F480721A60D2
:103BF000236F626F5A60012384F83530002084F807
:103C000034007AE6012078E61000024028000240E5
:103C100008540258002800F0298108B5024690F89F
:103C20003530DBB2022B03D080234365012008BD71
:103C30000368904890498B4218BF83420CBF012112
:103C4000002166D03030834263D01830834260D088
:103C5000183083425DD0183083425AD018308342E6
:103C600057D01830834254D000F55670834250D05C
:103C7000183083424DD0183083424AD018308342E6
:103C800047D01830834244D01830834241D0183096
:103C900083423ED0183083423BD0196821F00E0198
:103CA00019601368A0F5956073498B4218BF834271
:103CB0006AD072498B4267D018318B4264D0183178
:103CC0008B4261D018318B425ED018318B425BD071
:103CD00018318B4258D001F556718B4254D01831AF
:103CE0008B4251D018318B424ED018318B424BD081
:103CF00018318B4248D018318B4245D018318B4255
:103D000042D018318B423FD0196821F0010119606F
:103D10003EE0042082F8350081BB584A93422DD002
:103D2000183293422AD01832934227D01832934245
:103D300024D01832934221D0183293421ED002F57B
:103D4000567293421AD01832934217D018329342C7
:103D500014D01832934211D0183293420ED0183238
:103D600093420BD01832934208D01832934205D0B8
:103D70001A6822F001021A60002058E71A6822F03F
:103D800001021A60002052E7196821F00101196050
:103D90001368384838498B4218BF834242D01831E3
:103DA0008B423FD018318B423CD018318B4239D0F6
:103DB00018318B4236D018318B4233D018318B42B8
:103DC00030D001F556718B422CD018318B4229D05E
:103DD00018318B4226D018318B4223D018318B42B8
:103DE00020D018318B421DD018318B421AD0183197
:103DF0008B4217D022498B4214D014318B4211D000
:103E000014318B420ED014318B420BD014318B42C3
:103E100008D014318B4205D014318B4202D01431BA
:103E20008B4217D1116E0B6823F480730B60906D79
:103E3000D36D03F01F0101238B404360536E916EDD
:103E40005960D36E33B1196821F480711960136F12
:103E5000516F5960012382F83530002382F83430E5
:103E6000136D2BB1104698470020E0E60120704703
:103E70000020DCE610000240280002404000024022
:103E800008540258F0B583B00446002301937D4BDB
:103E90001D687D4BA3FB0535AD0A876D3E68D7F8DD
:103EA00000C0036879497A48834218BF8B420CBF2F
:103EB0000120002061D0774A93425ED018329342AD
:103EC0005BD01832934258D01832934255D01832F2
:103ED000934252D0183293424FD002F55672934219
:103EE0004BD01832934248D01832934245D0183202
:103EF000934242D0183293423FD0183293423CD082
:103F00001832934239D01832934236D06249634A0C
:103F1000934218BF8B4212D0614A93420FD01432A1
:103F200093420CD01432934209D01432934206D0FB
:103F30001432934203D01432934240F061821A68E3
:103F4000E16D01F01F010420884010EA0C0F00F021
:103F5000A78212F0040F00F0A382786012F4004FE1
:103F600000F05A8212F4803F40F05082A36C002B84
:103F700000F046822046984742E2E26D02F01F01BF
:103F800008228A40324241D070BB424A93422BD031
:103F90001832934228D01832934225D018329342D7
:103FA00022D0183293421FD0183293421CD002F50F
:103FB0005672934218D01832934215D01832934259
:103FC00012D0183293420FD0183293420CD01832CC
:103FD000934209D01832934206D01832934203D04C
:103FE0001A68C2F3C00202E01A68C2F380026AB122
:103FF0001A6822F004021A60E36D03F01F0208231E
:104000009340BB60636D43F001036365E26D02F0B2
:104010001F0226FA02F313F0010F47D023681B4852
:104020001B498B4218BF83423CD018318B4239D098
:1040300018318B4236D018318B4233D018318B4235
:1040400030D018318B422DD018318B422AD001F557
:1040500056718B4226D018318B4223D018318B42B7
:1040600020D018318B421DD018318B421AD0183114
:104070008B4217D018318B4214D018318B4211D09B
:104080001B6813E000000024B5814E1B10000240A5
:104090002800024040000240085402581C540258B4
:1040A000305402585B6913F0800F3BD1E36D03F08D
:1040B0001F03042202FA03F3334240D022689648D9
:1040C00096498A4218BF824235D018318A4232D08E
:1040D00018318A422FD018318A422CD018318A42A6
:1040E00029D018318A4226D018318A4223D001F5CE
:1040F00056718A421FD018318A421CD018318A4228
:1041000019D018318A4216D018318A4213D018318A
:104110008A4210D018318A420DD018318A420AD012
:1041200013680CE0012303FA02F2BA60636D43F0F6
:1041300002036365BAE7126812F0020F3DD1E36D26
:1041400003F01F03102202FA03F333425FD0226808
:10415000714872498A4218BF824234D018318A426B
:1041600031D018318A422ED018318A422BD01831E2
:104170008A4228D018318A4225D018318A4222D06A
:1041800001F556718A421ED018318A421BD018316F
:104190008A4218D018318A4215D018318A4212D07A
:1041A00018318A420FD018318A420CD018318A4215
:1041B00009D01268C2F3800208E0BB60636D43F06F
:1041C00004036365BBE71268C2F3C002FAB1BB60C7
:1041D00023681A6812F4802F0DD01B6813F4002F87
:1041E00004D1236C9BB12046984710E0A36C73B1B7
:1041F000204698470BE01A6812F4807F03D11A68B2
:1042000022F008021A60236C0BB120469847E36D38
:1042100003F01F03202202FA03F3334200F09280DE
:1042200022683D483D498A4218BF82422ED018314B
:104230008A422BD018318A4228D018318A4225D0A0
:1042400018318A4222D018318A421FD018318A424E
:104250001CD001F556718A4218D018318A4215D007
:1042600018318A4212D018318A420FD018318A424E
:104270000CD018318A4209D018318A4206D0183140
:104280008A4203D01268C2F3400202E01268C2F30D
:104290000012002A56D0BB6094F83530DBB2042BF4
:1042A0000ED023681A6812F4802F39D01B6813F4DB
:1042B000002F2CD1636C002B44D02046984741E05E
:1042C0002268136823F0160313602268536923F0F1
:1042D00080035361236CB3B12268136823F0080391
:1042E0001360E36D03F01F023F239340BB60012383
:1042F00084F83530002384F83430236D002B7FD0D0
:10430000204698477CE0A36C002BE5D1E9E7E36BFE
:10431000C3B12046984715E0100002402800024033
:104320001A6812F4807F09D11A6822F010021A600C
:10433000012384F83530002384F83430E36B0BB16B
:1043400020469847636D002B5AD0636D13F0010F20
:1043500052D0042384F8353023689649964A934214
:1043600018BF8B422FD0183293422CD01832934270
:1043700029D01832934226D01832934223D01832D3
:10438000934220D0183293421DD002F556729342C8
:1043900019D01832934216D01832934213D01832E3
:1043A000934210D0183293420DD0183293420AD063
:1043B0001832934207D01832934204D01A6822F080
:1043C00001021A6003E01A6822F001021A60019BE0
:1043D00001330193AB4204D823681B6813F0010F2B
:1043E000F5D123681B6813F0010F0BD0032384F869
:1043F0003530002384F83430E36C0BB12046984705
:1044000003B0F0BD012384F83530F2E7236C002BB4
:10441000F6D020469847F3E712F0200F3AD12368F0
:104420006449654A934218BF8B422FD01832934299
:104430002CD01832934229D01832934226D0183209
:10444000934223D01832934220D0183293421DD089
:1044500002F55672934219D01832934216D0183290
:10446000934213D01832934210D0183293420DD099
:10447000183293420AD01832934207D0183293422E
:1044800004D01A6822F004021A6003E01A6822F0CD
:1044900008021A60236C002BB2D020469847AFE781
:1044A0000220884010EA0C0F60D012F0020F5DD09D
:1044B000786012F4004F0ED012F4803F05D1636C87
:1044C000002B9DD0204698479AE7E36B002B97D0AE
:1044D0002046984794E712F0200F40D123683549D1
:1044E000354A934218BF8B422FD0183293422CD0BA
:1044F0001832934229D01832934226D01832934270
:1045000023D01832934220D0183293421DD002F5A6
:104510005672934219D01832934216D018329342F1
:1045200013D01832934210D0183293420DD0183263
:1045300093420AD01832934207D01832934204D0E3
:104540001A6822F00A021A6003E01A6822F01402C4
:104550001A60012384F83530002384F83430E36B8B
:10456000002B3FF44DAF2046984749E7082000FA5A
:1045700001F111EA0C0F3FF443AF12F0080F3FF4C2
:104580003FAF1A6822F00E021A60E36D03F01F03BA
:10459000012202FA03F37B60626584F83520002370
:1045A00084F83430E36C002B3FF42AAF2046984760
:1045B00026E700BF100002402800024030B4446BE0
:1045C0000368D3F884106F4A114041EA8401C3F8AC
:1045D00084100368D3F8841021F47F01856B41EACD
:1045E0000541C3F88410836B23440468D4F8881011
:1045F000114041EA8301C4F888100468D4F8881097
:1046000021F4FE01C56B41EA0541C4F88810C16B75
:1046100003EB41030468D4F8A010114041EA830180
:10462000C4F8A0100468D4F8A01021F4FE01056CB1
:1046300041EA0541C4F8A010016C446C04FB01334D
:104640000468D4F8B010114041EA8301C4F8B010F6
:104650000468D4F8B01021F4FE01856C41EA0541EC
:10466000C4F8B010816CC46C04FB01330468D4F846
:10467000AC10114041EA8301C4F8AC10016D446DE7
:1046800004FB01330468D4F8F010114041EA8301BF
:10469000C4F8F0100468D4F8F01021F47C11856D92
:1046A00041EA0541C4F8F010816D03EB4103046851
:1046B000D4F8C0100A4042EA8303C4F8C03002684C
:1046C000D2F8C03023F47C13C16D43EA0143C2F831
:1046D000C0300268D2F8C03023F07C53016E43EA48
:1046E0000163C2F8C030436B274A1A449200C26685
:1046F000836B02EB83030367C16B03EBC103436767
:10470000016C446C04FB01F103EB81038367816C52
:10471000C46C04FB01F103EB8103C367016D446DBD
:1047200004FB01F103EB8103C0F88030816D03EBE2
:10473000C103C0F88430816EC46D01FB04FC03EB3F
:104740008C03C0F88830046E04FB01F103EB810395
:10475000C0F890300D498B420DD9D0F89C3043F011
:104760002003C0F89C30032380F89830012007E034
:10477000002342F8043BD0F890309342F8D8002050
:1047800030BC70470300FFFF002B0010FCD300403B
:1047900070B54C68FCB90D698C6825430C6845EA16
:1047A00084450E6ACC6944EA06648E6934434E69D6
:1047B0003443CE6844EA0644D0F88460806E00FB3F
:1047C00003F306EB830E46F82350CEF804400EF1B7
:1047D000080E002019E00C698D6825430C682543FC
:1047E00045F08045DDE702EB000C9CF803409CF8A7
:1047F00002301B0443EA04639CF8014043EA0423AB
:10480000145C23434EF8043B0430CB68024CE35C59
:104810008342E8D870BD00BF74E8010830B595B098
:1048200004464C22A04901A8FCF72AFB002C00F00A
:10483000388123689D4A934220D094F898300BB376
:104840002268936923F010039361FEF78DFA054601
:1048500023689A6912F0080F1AD0FEF785FA431BF5
:104860000A2BF5D9D4F89C3043F00103C4F89C30EE
:10487000032384F89830012015B030BD03F5807310
:104880006360DAE784F899302046FCF781FFD7E7C8
:104890009A6942F001029A61FEF766FA05462368BA
:1048A0009A6912F0010F0FD1FEF75EFA401B0A2839
:1048B000F5D9D4F89C3043F00103C4F89C300323AD
:1048C00084F898300120D7E79A6942F002029A6191
:1048D000237C012B40D02268936943F0400393610D
:1048E000637C012B3ED02268936923F4804393615B
:1048F000A37C012B3CD02268936943F480539361DD
:104900002268936923F44073A1680B439361226882
:10491000936923F0A40393612268136923F01003C1
:104920001361E368012B29D0002B2CD0022B00F05F
:104930009B802268936943F0800393612268136926
:1049400043F010031361E368032B1CD122689369C1
:1049500043F02003936116E02268936923F040033B
:104960009361BDE72268936943F480439361BFE795
:104970002268936923F480539361C1E722689369A5
:1049800043F004039361A3695A1EE369013B1B02D0
:1049900043EA4263226A013A13436269013A216899
:1049A00043EA0243CB61A368B3F5407F62D0236E34
:1049B00033B12268D2F8C030616E0B43C2F8C03008
:1049C000E36D226ED3420DD02168D1F8C83023F0B8
:1049D0000703A26E14A800EB820252F84C2C13437A
:1049E000C1F8C830236C6BB12168D1F8BC3023F01A
:1049F0000703626C14A800EB820252F84C2C13439C
:104A0000C1F8BC30A36C73B12168D1F8BC3023F07D
:104A10007003E26C14A800EB820252F84C2C43EABB
:104A20000213C1F8BC30236D73B12168D1F8BC30DA
:104A300023F4E063626D14A800EB820252F84C2C60
:104A400043EA0223C1F8BC302268184B9A4222D0B4
:104A50000023C4F89430C4F89C30012384F89830C3
:104A60002046FFF7ABFD07E72268936943F0200378
:104A7000936188E7A36A013BE26A013A43EA0223B1
:104A8000226B013A43EA0213626A013A216843EA5F
:104A90000243CB608BE76268936823F00303936063
:104AA000D6E70120E8E600BF70E7010800A000405B
:104AB00090F89830013BDBB2012B07D9D0F89C303D
:104AC00043F00203C0F89C3001207047CB680A68AD
:104AD000D2B9072B0ED08A68DB0643EA82730A69D3
:104AE00043EA02434A691343C26E496842F82130DF
:104AF000002070470A69CB691B0243EA02438A69B6
:104B0000134343F06053EFE710B40A6942EA43727B
:104B1000072B0FD04B698C6843EA8473006F496898
:104B200000EBC10C40F83120CCF8043000205DF8D7
:104B3000044B70478B69F1E790F898C05FFA8CFCE2
:104B4000BCF1010F07D0D0F89C3043F00403C0F84B
:104B50009C3001207047920042EA011242EA43026F
:104B6000036800990A43C3F880200020704790F83A
:104B70009830DBB2012B07D0D0F89C3043F004030F
:104B8000C0F89C300120704751B90168D1F8F0306D
:104B900023F07C5343EA0262C1F8F0200020704702
:104BA000012909D00168D1F8B03023F0FE4343EA6F
:104BB0000262C1F8B020F1E70168D1F8A03023F01B
:104BC000FE4343EA0262C1F8A020E7E790F898307C
:104BD000DBB2012B07D0D0F89C3043F00403C0F8BF
:104BE0009C3001207047022380F898300268936956
:104BF00023F0010393610023C0F89C3018467047EE
:104C000090F89830DBB2022B3ED10268936943F0F2
:104C10000103936100230268916911F0010F0ED125
:104C2000322B01D80133F6E7D0F89C3043F0010372
:104C3000C0F89C30032380F89830012070479369B6
:104C400023F01003936100230268916911F0080FAB
:104C50000ED0322B01D80133F6E7D0F89C3043F068
:104C60000103C0F89C30032380F89830012070477E
:104C7000936943F0020393610023C0F8943001224A
:104C800080F8982018467047D0F89C3043F008030D
:104C9000C0F89C300120704788B110B50446FFF77A
:104CA000AFFF2268D36D23F00303D3652046FCF7E2
:104CB00083FE0020C4F89C0084F8980010BD0120F9
:104CC0007047000038B5044690F89830DBB2022BEC
:104CD00037D10368D3F8C00010F07C5F10D0D3F850
:104CE000C40010F4001F17D0D4F89C3043F40073B4
:104CF000C4F89C30194A13680133136001202BE07B
:104D0000D4F89C3043F02003C4F89C30144A136854
:104D10000133136001201FE0124D28680130286024
:104D2000D3F8C450C5F304452B462046FFF730FDA9
:104D300022680123AB40C2F8D030C4F89430002080
:104D40000AE0094A136801331360D0F89C3043F03D
:104D50000803C0F89C30012038BD00BF4424002463
:104D600040240024482400244C24002490F898C0B7
:104D70005FFA8CFCBCF1020F40F0E28070B5402974
:104D80000CD041293DD0046D8C426DD8D0F89C30B8
:104D900043F02003C0F89C300120C3E00468D4F83D
:104DA000A05015F4FE0F0CD0D4F8A45015F07F0FCE
:104DB0000FD1D0F89C3043F48073C0F89C300120B0
:104DC000B0E0D0F89C3043F02003C0F89C300120C4
:104DD000A8E0D4F8A450C5F3006615F0807F04D095
:104DE000D4F8A060F60F00D10026D4F8A440C4F394
:104DF00005242644456F446C06FB04F405EB840C43
:104E000039E00468D4F8B05015F4FE0F0CD0D4F893
:104E1000B45015F07F0F0FD1D0F89C3043F480735D
:104E2000C0F89C3001207DE0D0F89C3043F0200396
:104E3000C0F89C30012075E0D4F8B450C5F300668A
:104E400015F0807F04D0D4F8B060F60F00D10026B2
:104E5000D4F8B440C4F305242644856FC46C06FB23
:104E600004F405EB840C06E0C56F446D01FB04F40B
:104E700005EB840C0026DCF8004004F0804454600C
:104E800074BBDCF80040C4F38A441460DCF80040D2
:104E900004F000549460DCF8004004F00044146115
:104EA000BCF80440D461BCF8064004F00F04D460A0
:104EB000DCF8044004F480145461DCF8044004F489
:104EC000001494619CF8074004F07F041462DCF83D
:104ED0000440E40F54620CF1080E4FF0000C0BE09C
:104EE000DCF8004024F060441460CFE71EF80C406A
:104EF00003F80C400CF1010CD468154D2C5D644591
:104F0000F4D840290AD041290DD01F290FD80268B2
:104F1000012303FA01F1C2F8981002E00368C3F814
:104F2000A860002070BD0368C3F8B860F9E701F01D
:104F30001F010268012303FA01F1C2F89C10F0E797
:104F4000D0F89C3043F00803C0F89C300120704733
:104F500074E80108402905D00368D3F8B40000F0D4
:104F60007F0070470368D3F8A40000F07F0070470B
:104F700090F89830013BDBB2012B07D9D0F89C3078
:104F800043F00203C0F89C300120704710B403685E
:104F90009C6D0C4224D1DC6D44F00104DC6511F4FD
:104FA000007F05D00468D4F8E0301343C4F8E03043
:104FB00011F4806F05D00468D4F8E4301A43C4F8C3
:104FC000E4200068436D0C4A0A40134343650B4AD2
:104FD000536943EA9171516100205DF8044B7047B9
:104FE0009C6D31EA040402D00324DC65D7E7DC6D54
:104FF00044F00204DC65D2E7FFFFCF3F00A8004089
:1050000070477047704770477047704770477047E8
:105010007047704770477047704770472DE9F04FF1
:1050200083B00446B04B1A695B699B0703EA82733D
:10503000019303681A6D02F4704A5A6D0AEA020A73
:105040001A6D02F00F095A6D09EA02091A6D02F091
:10505000F0085A6D08EA02081E6D06F071565A6D86
:1050600016401F6D07F060775A6D17405D6DD3F8DD
:1050700050B015F4807F02D01BF4807F64D115F40A
:10508000806F02D01BF4806F67D1019B002B74D11D
:10509000BAF1000F7CD1B9F1000F40F08580B8F172
:1050A000000F40F08D8015F4006F03D01BF4006FEB
:1050B00040F0928015F4007F03D01BF4007F40F095
:1050C000968015F4002F03D01BF4002F40F09F8032
:1050D00015F4803F03D01BF4803F40F0A38015F40B
:1050E000802F03D01BF4802F40F0A78015F4003FE1
:1050F0000FD01BF4003F0CD023684FF400321A6528
:10510000794B00221A61D4F89C3043F08003C4F834
:105110009C30002F40F09C804EB123681E65B20F7A
:10512000714B1A61D4F89C301E43C4F89C6022680D
:105130006E4B9A4200F09680D4F89C30002B40F0E1
:10514000F78003B0BDE8F08F4FF480721A65664BAC
:1051500000221A61FFF75CFF91E72368D3F8DC10A7
:10516000D3F8E4204FF4806018655F4B002018618D
:1051700011402046FFF748FF87E7236800221A65A1
:1051800001998A0F584B1A612046FFF739FF7FE7D4
:105190002368C3F850A04FEA9A72534B1A615146E4
:1051A0002046FFF72EFF76E72368C3F850904FEABA
:1051B00099724D4B1A61494620460CF0F5F86EE79E
:1051C0002368C3F850804FEA9872474B1A614146F2
:1051D00020460CF035F966E723684FF400621A6543
:1051E000414B00221A612046FFF70CFF62E723685B
:1051F000D3F8D810D3F8E0204FF4007018653A4B7C
:105200000020186111402046FFF7FDFE59E7236892
:105210004FF400221A65344B00221A612046FFF732
:10522000F4FE55E723684FF480321A652E4B0022B6
:105230001A612046FFF7EAFE51E723684FF4802207
:105240001A65294B00221A612046FFF7E0FE4DE760
:1052500023681F65BA0F244B1A61394620460CF0AB
:105260003BF959E763689A6812F0030F3FF464AFA3
:10527000196A01F00F015A6A186A00F03008586A7A
:1052800008EA00081F6A07F4C077586A07401E6AD8
:1052900006F4FC46586A06401D6A05F4F025586A73
:1052A0000540D3F82490D3F820A0114020D1B8F1C4
:1052B000000F22D119F0400F02D01AF0400F24D174
:1052C0007FBB36B163681E62D4F89C301E43C4F8BD
:1052D0009C60002D3FF430AF63681D62D4F89C30B1
:1052E0001D43C4F89C5027E700A8004000A00040E0
:1052F00019622046FFF78EFED9E76368C3F8208065
:1053000041462046FFF787FED4E76368D96BDA6B26
:105310004020186202F03F02090C2046FFF77CFE95
:10532000CEE763681F6239462046FFF776FEC8E77E
:105330002046FFF76EFE04E7F0B583B000236BE074
:1053400085685E000324B44025EA0405CC68B440B7
:105350002C438460446824EA0C0C4C68C4F30014A9
:105360009C4044EA0C04446068E0DD08083550F8CD
:10537000256003F007044FEA840C0F2404FA0CF4B0
:1053800026EA040E0C6904FA0CF444EA0E0440F810
:1053900025406BE0092400E0002404FA0EF42C43BD
:1053A0000CF1020C664D45F82C404FF0B0442568D6
:1053B000D44325EA02064F6817F4801F01D042EA61
:1053C00005064FF0B0452E606D6804EA05064F688B
:1053D00017F4001F01D042EA05064FF0B0456E6099
:1053E000D5F8845004EA05064F6817F4003F01D051
:1053F00042EA05064FF0B045C5F88460D5F8805004
:105400002C404E6816F4803F01D042EA05044FF06C
:10541000B042C2F8804001330A6832FA03F400F067
:105420008C804FF0010C0CFA03FC1CEA0202F2D053
:105430004C6804F00304013C012C81D94C6804F051
:105440000304032C0CD0C4685D004FF0030C0CFA6D
:1054500005FC24EA0C0C8C68AC4044EA0C04C460E3
:105460004C6804F00304022C3FF47FAF04684FEA59
:10547000430E4FF0030C0CFA0EFC24EA0C0C4C68A3
:1054800004F0030404FA0EF444EA0C0404604C68CB
:1054900014F4403FBFD02B4CD4F8F45045F0020533
:1054A000C4F8F450D4F8F44004F002040194019CD0
:1054B0004FEA930C0CF10205214C54F8255003F0EF
:1054C00003044FEA840E0F2404FA0EF425EA0405BF
:1054D0001D4CA0423FF460AF04F58064A0421ED092
:1054E00004F58064A0421CD004F58064A0421AD068
:1054F00004F58064A04218D004F58064A04216D060
:1055000004F58064A04214D004F58064A04212D057
:1055100004F50064A0423FF43DAF0A243DE70124B6
:105520003BE7022439E7032437E7042435E7052461
:1055300033E7062431E707242FE703B0F0BD00BFAF
:10554000000400580044025800000258002331FAB9
:1055500003F200F09780F0B52EE0092500E0002569
:1055600005FA0CFCA4456CD004685D004FF0030CF8
:105570000CFA05FC44EA0C0404604FEAD30E0EF169
:10558000080E50F82E4003F00705AE000F25B54079
:1055900024EA050440F82E40C46824EA0C04C460E0
:1055A000446824EA02024260826822EA0C028260B5
:1055B000013331FA03F264D001229A4012EA010E5B
:1055C000F6D09E08B51C304C54F8254003F0030C6F
:1055D0004FEA8C0C0F2505FA0CF73C402B4DA842E6
:1055E000BDD005F58065A8421DD005F58065A842AF
:1055F0001BD005F58065A84219D005F58065A84245
:1056000017D005F58065A84215D005F58065A8423C
:1056100013D005F58065A84211D005F50065A842B4
:105620009BD00A259CE701259AE7022598E70325E8
:1056300096E7042594E7052592E7062590E70725D8
:105640008EE74FF0B044D4F8805025EA0E05C4F838
:105650008050D4F8845025EA0E05C4F8845065685B
:1056600025EA0E056560256825EA0E052560DFF848
:1056700018C0B41C5CF8245025EA07054CF82450E7
:1056800072E7F0BD704700BF0004005800000258E8
:105690000AB1816170470904816170472DE9F043C7
:1056A00083B0D0F8008001EBC10300EB83039A6A5A
:1056B0005B6A9A4254D807460C469B1A01EBC1021A
:1056C00000EB8202D2699A4200D31A4602F1030922
:1056D0004FEA990915E006F103094FEA9909BB79E8
:1056E00004EBC40507EB8505296A0093B3B2E2B267
:1056F000404605F0F6FA2B6A33442B62AB6A33441A
:10570000AB6208EB441303F510639B699BB24B45F6
:1057100012D304EBC40207EB8202916A536A9942E6
:105720000AD24BB15B1A04EBC40207EB8202D669C2
:105730009E42D0D31E46CEE704EBC40007EB8007A1
:105740007A6ABB6A9A420FD804F00F040123A3407F
:10575000D8F8344824EA0304C8F83448002000E0AC
:10576000012003B0BDE8F0830020FAE730B583B034
:1057700000287AD0044690F89534ABB1032384F81E
:105780009534206805F064F8237C8DF80030231DE3
:105790000ECB206804F092FF58B1022384F89534B0
:1057A0000125284603B030BD80F8943408F0AAFFE4
:1057B000E4E70021206805F0B5FC024608B903467D
:1057C00017E0022384F895340125EAE703EBC301CF
:1057D00004EB8101012048750B75CB85002008760C
:1057E000C861086203EBC30104EB81014862013325
:1057F000DBB220799842E9D816E002EBC20304EB51
:105800008303002183F8551283F8542283F8581239
:10581000C3F85C12C3F8601202EBC20304EB83030B
:10582000C3F864120132D2B29042E6D8237C8DF8DC
:105830000030231D0ECB206805F060F8054658B9EE
:1058400000236374012384F89534237B012B08D053
:10585000206805F024FCA4E7022384F89534012590
:105860009FE7204600F074FDF2E7012599E7036801
:1058700090F89424012A1AD010B50446012280F829
:105880009424DA6812F0400F02D0427B012A09D03A
:10589000206804F0D7FF206805F0F3FB002084F8AF
:1058A000940410BD9A6B42F480329A63F0E70220B0
:1058B0007047000070B504460D460068066C00EBAA
:1058C000411303F530639A68A179012911D0384951
:1058D0008E4256D03DB905EBC50304EB8303D3F8E4
:1058E0006432002B5ED0E9B2204608F04DFF002064
:1058F00070BD12F0080F09D02E498E42F7D912F46C
:10590000004FF4D04FF400429A60F0E712F0200FFD
:1059100002D020229A60EAE712F0280FE7D1254949
:105920008E4206D912F4004F03D04FF400429A6021
:10593000DDE705EBC50204EB8202D2F874121B69A5
:10594000C3F31203CB1AC2F868327DB905EBC50266
:1059500004EB8202D2F864226AB105EBC50204EBC3
:105960008202D2F860120B44C2F86032E9B22046DB
:1059700008F00AFFBBE704F29C42012105F014FC89
:10598000F4E712F4004F03D04FF400429A60AEE700
:1059900012F0200F01D020229A60E9B2204608F0D0
:1059A000F3FEA4E704F29C42002105F0FDFB9AE718
:1059B0000A31544F0A30544F38B5044603681D6C01
:1059C00003EB4113D3F8081B0E4A954207D903F5A0
:1059D000306311F4004F02D04FF400429A60204629
:1059E00008F0CAFE074B9D4202D9A379012B01D0D2
:1059F000002038BD04F29C420121206805F0D4FB50
:105A0000F6E700BF0A30544F90F89434012B0CD0C5
:105A100010B50446012380F894344174006805F001
:105A200020FB002084F8940410BD0220704738B594
:105A300005468C4611F0800F2BD101F00F0E0EEBB6
:105A4000CE04A40004F514740444211D0EEBCE0E04
:105A500000EB8E0E00208EF855020CF00F0C81F832
:105A600000C0C2F30A028A600B714A780AB1A1F839
:105A70001AC0022B1CD095F89434012B1BD00123A3
:105A800085F89434286805F00FF8002085F8940410
:105A900038BD01F00F0000EBC0018900103129442E
:105AA000043100EBC00005EB800001244475D4E70D
:105AB00000234B71DFE70220EAE710B504460A46EF
:105AC00011F0800F20D101F00F0000EBC0039B000C
:105AD00003F514732344191D00EBC00004EB800090
:105AE000002380F8553202F00F020A7094F89434C3
:105AF000012B18D0012384F89434206805F022F893
:105B0000002084F8940410BD01F00F0000EBC003E6
